{
  "contractName": "Certificate",
  "abi": [
    {
      "inputs": [
        {
          "internalType": "string",
          "name": "",
          "type": "string"
        }
      ],
      "name": "certificates",
      "outputs": [
        {
          "internalType": "string",
          "name": "name",
          "type": "string"
        },
        {
          "internalType": "string",
          "name": "course",
          "type": "string"
        },
        {
          "internalType": "string",
          "name": "date",
          "type": "string"
        }
      ],
      "stateMutability": "view",
      "type": "function"
    },
    {
      "inputs": [
        {
          "internalType": "string",
          "name": "_id",
          "type": "string"
        },
        {
          "internalType": "string",
          "name": "_name",
          "type": "string"
        },
        {
          "internalType": "string",
          "name": "_course",
          "type": "string"
        },
        {
          "internalType": "string",
          "name": "_date",
          "type": "string"
        }
      ],
      "name": "addCertificate",
      "outputs": [],
      "stateMutability": "nonpayable",
      "type": "function"
    },
    {
      "inputs": [
        {
          "internalType": "string",
          "name": "_id",
          "type": "string"
        }
      ],
      "name": "getCertificate",
      "outputs": [
        {
          "internalType": "string",
          "name": "",
          "type": "string"
        },
        {
          "internalType": "string",
          "name": "",
          "type": "string"
        },
        {
          "internalType": "string",
          "name": "",
          "type": "string"
        }
      ],
      "stateMutability": "view",
      "type": "function"
    }
  ],
  "bytecode": "0x608060405234801561000f575f80fd5b50610b928061001d5f395ff3fe608060405234801561000f575f80fd5b506004361061003f575f3560e01c806372c44638146100435780638f2b91ea1461005f578063ed0f2e7514610091575b5f80fd5b61005d6004803603810190610058919061065b565b6100c3565b005b6100796004803603810190610074919061072f565b610144565b604051610088939291906107f0565b60405180910390f35b6100ab60048036038101906100a6919061072f565b610313565b6040516100ba939291906107f0565b60405180910390f35b6040518060600160405280848152602001838152602001828152505f856040516100ed9190610874565b90815260200160405180910390205f820151815f01908161010e9190610a8d565b5060208201518160010190816101249190610a8d565b50604082015181600201908161013a9190610a8d565b5090505050505050565b5f818051602081018201805184825260208301602085012081835280955050505050505f91509050805f01805461017a906108b7565b80601f01602080910402602001604051908101604052809291908181526020018280546101a6906108b7565b80156101f15780601f106101c8576101008083540402835291602001916101f1565b820191905f5260205f20905b8154815290600101906020018083116101d457829003601f168201915b505050505090806001018054610206906108b7565b80601f0160208091040260200160405190810160405280929190818152602001828054610232906108b7565b801561027d5780601f106102545761010080835404028352916020019161027d565b820191905f5260205f20905b81548152906001019060200180831161026057829003601f168201915b505050505090806002018054610292906108b7565b80601f01602080910402602001604051908101604052809291908181526020018280546102be906108b7565b80156103095780601f106102e057610100808354040283529160200191610309565b820191905f5260205f20905b8154815290600101906020018083116102ec57829003601f168201915b5050505050905083565b60608060605f80856040516103289190610874565b90815260200160405180910390206040518060600160405290815f82018054610350906108b7565b80601f016020809104026020016040519081016040528092919081815260200182805461037c906108b7565b80156103c75780601f1061039e576101008083540402835291602001916103c7565b820191905f5260205f20905b8154815290600101906020018083116103aa57829003601f168201915b505050505081526020016001820180546103e0906108b7565b80601f016020809104026020016040519081016040528092919081815260200182805461040c906108b7565b80156104575780601f1061042e57610100808354040283529160200191610457565b820191905f5260205f20905b81548152906001019060200180831161043a57829003601f168201915b50505050508152602001600282018054610470906108b7565b80601f016020809104026020016040519081016040528092919081815260200182805461049c906108b7565b80156104e75780601f106104be576101008083540402835291602001916104e7565b820191905f5260205f20905b8154815290600101906020018083116104ca57829003601f168201915b5050505050815250509050805f015181602001518260400151935093509350509193909250565b5f604051905090565b5f80fd5b5f80fd5b5f80fd5b5f80fd5b5f601f19601f8301169050919050565b7f4e487b71000000000000000000000000000000000000000000000000000000005f52604160045260245ffd5b61056d82610527565b810181811067ffffffffffffffff8211171561058c5761058b610537565b5b80604052505050565b5f61059e61050e565b90506105aa8282610564565b919050565b5f67ffffffffffffffff8211156105c9576105c8610537565b5b6105d282610527565b9050602081019050919050565b828183375f83830152505050565b5f6105ff6105fa846105af565b610595565b90508281526020810184848401111561061b5761061a610523565b5b6106268482856105df565b509392505050565b5f82601f8301126106425761064161051f565b5b81356106528482602086016105ed565b91505092915050565b5f805f806080858703121561067357610672610517565b5b5f85013567ffffffffffffffff8111156106905761068f61051b565b5b61069c8782880161062e565b945050602085013567ffffffffffffffff8111156106bd576106bc61051b565b5b6106c98782880161062e565b935050604085013567ffffffffffffffff8111156106ea576106e961051b565b5b6106f68782880161062e565b925050606085013567ffffffffffffffff8111156107175761071661051b565b5b6107238782880161062e565b91505092959194509250565b5f6020828403121561074457610743610517565b5b5f82013567ffffffffffffffff8111156107615761076061051b565b5b61076d8482850161062e565b91505092915050565b5f81519050919050565b5f82825260208201905092915050565b5f5b838110156107ad578082015181840152602081019050610792565b5f8484015250505050565b5f6107c282610776565b6107cc8185610780565b93506107dc818560208601610790565b6107e581610527565b840191505092915050565b5f6060820190508181035f83015261080881866107b8565b9050818103602083015261081c81856107b8565b9050818103604083015261083081846107b8565b9050949350505050565b5f81905092915050565b5f61084e82610776565b610858818561083a565b9350610868818560208601610790565b80840191505092915050565b5f61087f8284610844565b915081905092915050565b7f4e487b71000000000000000000000000000000000000000000000000000000005f52602260045260245ffd5b5f60028204905060018216806108ce57607f821691505b6020821081036108e1576108e061088a565b5b50919050565b5f819050815f5260205f209050919050565b5f6020601f8301049050919050565b5f82821b905092915050565b5f600883026109437fffffffffffffffffffffffffffffffffffffffffffffffffffffffffffffffff82610908565b61094d8683610908565b95508019841693508086168417925050509392505050565b5f819050919050565b5f819050919050565b5f61099161098c61098784610965565b61096e565b610965565b9050919050565b5f819050919050565b6109aa83610977565b6109be6109b682610998565b848454610914565b825550505050565b5f90565b6109d26109c6565b6109dd8184846109a1565b505050565b5b81811015610a00576109f55f826109ca565b6001810190506109e3565b5050565b601f821115610a4557610a16816108e7565b610a1f846108f9565b81016020851015610a2e578190505b610a42610a3a856108f9565b8301826109e2565b50505b505050565b5f82821c905092915050565b5f610a655f1984600802610a4a565b1980831691505092915050565b5f610a7d8383610a56565b9150826002028217905092915050565b610a9682610776565b67ffffffffffffffff811115610aaf57610aae610537565b5b610ab982546108b7565b610ac4828285610a04565b5f60209050601f831160018114610af5575f8415610ae3578287015190505b610aed8582610a72565b865550610b54565b601f198416610b03866108e7565b5f5b82811015610b2a57848901518255600182019150602085019450602081019050610b05565b86831015610b475784890151610b43601f891682610a56565b8355505b6001600288020188555050505b50505050505056fea26469706673582212206c40c3e6d600fab5160d940bd70a9a18b2c62086f3a1e26c86ddd56167f51cfb64736f6c63430008140033",
  "immutableReferences": {},
  "source": "// SPDX-License-Identifier: MIT\r\npragma solidity ^0.8.20;\r\n\r\ncontract Certificate {\r\n\r\n    struct Cert {\r\n        string name;\r\n        string course;\r\n        string date;\r\n    }\r\n\r\n    mapping(string => Cert) public certificates;\r\n\r\n    function addCertificate(\r\n        string memory _id,\r\n        string memory _name,\r\n        string memory _course,\r\n        string memory _date\r\n    ) public {\r\n\r\n        certificates[_id] = Cert(_name,_course,_date);\r\n    }\r\n\r\n    function getCertificate(string memory _id)\r\n    public\r\n    view\r\n    returns(string memory,string memory,string memory){\r\n\r\n        Cert memory c = certificates[_id];\r\n        return(c.name,c.course,c.date);\r\n    }\r\n}",
  "sourcePath": "C:\\Users\\prava\\certificate-dapp\\contracts\\Certificate.sol",
  "compiler": {
    "name": "solc",
    "version": "0.8.20+commit.a1b79de6.Emscripten.clang"
  },
  "schemaVersion": "3.4.16",
  "updatedAt": "2026-03-23T10:09:44.601Z",
  "devdoc": {
    "kind": "dev",
    "methods": {},
    "version": 1
  },
  "userdoc": {
    "kind": "user",
    "methods": {},
    "version": 1
  }
}